{
  "_format": "hh-sol-artifact-1",
  "contractName": "Turtle",
  "sourceName": "contracts/Turtle.sol",
  "abi": [
    {
      "inputs": [],
      "stateMutability": "nonpayable",
      "type": "constructor"
    },
    {
      "inputs": [
        {
          "internalType": "address",
          "name": "spender",
          "type": "address"
        },
        {
          "internalType": "uint256",
          "name": "allowance",
          "type": "uint256"
        },
        {
          "internalType": "uint256",
          "name": "needed",
          "type": "uint256"
        }
      ],
      "name": "ERC20InsufficientAllowance",
      "type": "error"
    },
    {
      "inputs": [
        {
          "internalType": "address",
          "name": "sender",
          "type": "address"
        },
        {
          "internalType": "uint256",
          "name": "balance",
          "type": "uint256"
        },
        {
          "internalType": "uint256",
          "name": "needed",
          "type": "uint256"
        }
      ],
      "name": "ERC20InsufficientBalance",
      "type": "error"
    },
    {
      "inputs": [
        {
          "internalType": "address",
          "name": "approver",
          "type": "address"
        }
      ],
      "name": "ERC20InvalidApprover",
      "type": "error"
    },
    {
      "inputs": [
        {
          "internalType": "address",
          "name": "receiver",
          "type": "address"
        }
      ],
      "name": "ERC20InvalidReceiver",
      "type": "error"
    },
    {
      "inputs": [
        {
          "internalType": "address",
          "name": "sender",
          "type": "address"
        }
      ],
      "name": "ERC20InvalidSender",
      "type": "error"
    },
    {
      "inputs": [
        {
          "internalType": "address",
          "name": "spender",
          "type": "address"
        }
      ],
      "name": "ERC20InvalidSpender",
      "type": "error"
    },
    {
      "anonymous": false,
      "inputs": [
        {
          "indexed": true,
          "internalType": "address",
          "name": "owner",
          "type": "address"
        },
        {
          "indexed": true,
          "internalType": "address",
          "name": "spender",
          "type": "address"
        },
        {
          "indexed": false,
          "internalType": "uint256",
          "name": "value",
          "type": "uint256"
        }
      ],
      "name": "Approval",
      "type": "event"
    },
    {
      "anonymous": false,
      "inputs": [
        {
          "indexed": false,
          "internalType": "address",
          "name": "from",
          "type": "address"
        },
        {
          "indexed": false,
          "internalType": "uint256",
          "name": "amount",
          "type": "uint256"
        }
      ],
      "name": "TokensBurned",
      "type": "event"
    },
    {
      "anonymous": false,
      "inputs": [
        {
          "indexed": false,
          "internalType": "address",
          "name": "to",
          "type": "address"
        },
        {
          "indexed": false,
          "internalType": "uint256",
          "name": "amount",
          "type": "uint256"
        }
      ],
      "name": "TokensMinted",
      "type": "event"
    },
    {
      "anonymous": false,
      "inputs": [
        {
          "indexed": true,
          "internalType": "address",
          "name": "from",
          "type": "address"
        },
        {
          "indexed": true,
          "internalType": "address",
          "name": "to",
          "type": "address"
        },
        {
          "indexed": false,
          "internalType": "uint256",
          "name": "value",
          "type": "uint256"
        }
      ],
      "name": "Transfer",
      "type": "event"
    },
    {
      "inputs": [
        {
          "internalType": "address",
          "name": "owner",
          "type": "address"
        },
        {
          "internalType": "address",
          "name": "spender",
          "type": "address"
        }
      ],
      "name": "allowance",
      "outputs": [
        {
          "internalType": "uint256",
          "name": "",
          "type": "uint256"
        }
      ],
      "stateMutability": "view",
      "type": "function"
    },
    {
      "inputs": [
        {
          "internalType": "address",
          "name": "spender",
          "type": "address"
        },
        {
          "internalType": "uint256",
          "name": "value",
          "type": "uint256"
        }
      ],
      "name": "approve",
      "outputs": [
        {
          "internalType": "bool",
          "name": "",
          "type": "bool"
        }
      ],
      "stateMutability": "nonpayable",
      "type": "function"
    },
    {
      "inputs": [
        {
          "internalType": "address",
          "name": "account",
          "type": "address"
        }
      ],
      "name": "balanceOf",
      "outputs": [
        {
          "internalType": "uint256",
          "name": "",
          "type": "uint256"
        }
      ],
      "stateMutability": "view",
      "type": "function"
    },
    {
      "inputs": [
        {
          "internalType": "uint256",
          "name": "amount",
          "type": "uint256"
        }
      ],
      "name": "burn",
      "outputs": [],
      "stateMutability": "nonpayable",
      "type": "function"
    },
    {
      "inputs": [],
      "name": "decimals",
      "outputs": [
        {
          "internalType": "uint8",
          "name": "",
          "type": "uint8"
        }
      ],
      "stateMutability": "view",
      "type": "function"
    },
    {
      "inputs": [],
      "name": "getTokenInfo",
      "outputs": [
        {
          "internalType": "string",
          "name": "",
          "type": "string"
        },
        {
          "internalType": "string",
          "name": "",
          "type": "string"
        },
        {
          "internalType": "uint256",
          "name": "",
          "type": "uint256"
        },
        {
          "internalType": "uint256",
          "name": "",
          "type": "uint256"
        }
      ],
      "stateMutability": "view",
      "type": "function"
    },
    {
      "inputs": [
        {
          "internalType": "address",
          "name": "to",
          "type": "address"
        },
        {
          "internalType": "uint256",
          "name": "amount",
          "type": "uint256"
        }
      ],
      "name": "mint",
      "outputs": [],
      "stateMutability": "nonpayable",
      "type": "function"
    },
    {
      "inputs": [],
      "name": "name",
      "outputs": [
        {
          "internalType": "string",
          "name": "",
          "type": "string"
        }
      ],
      "stateMutability": "view",
      "type": "function"
    },
    {
      "inputs": [],
      "name": "owner",
      "outputs": [
        {
          "internalType": "address",
          "name": "",
          "type": "address"
        }
      ],
      "stateMutability": "view",
      "type": "function"
    },
    {
      "inputs": [
        {
          "internalType": "address",
          "name": "to",
          "type": "address"
        },
        {
          "internalType": "uint256",
          "name": "amount",
          "type": "uint256"
        }
      ],
      "name": "sendTokens",
      "outputs": [],
      "stateMutability": "nonpayable",
      "type": "function"
    },
    {
      "inputs": [],
      "name": "symbol",
      "outputs": [
        {
          "internalType": "string",
          "name": "",
          "type": "string"
        }
      ],
      "stateMutability": "view",
      "type": "function"
    },
    {
      "inputs": [],
      "name": "totalSupply",
      "outputs": [
        {
          "internalType": "uint256",
          "name": "",
          "type": "uint256"
        }
      ],
      "stateMutability": "view",
      "type": "function"
    },
    {
      "inputs": [
        {
          "internalType": "address",
          "name": "to",
          "type": "address"
        },
        {
          "internalType": "uint256",
          "name": "value",
          "type": "uint256"
        }
      ],
      "name": "transfer",
      "outputs": [
        {
          "internalType": "bool",
          "name": "",
          "type": "bool"
        }
      ],
      "stateMutability": "nonpayable",
      "type": "function"
    },
    {
      "inputs": [
        {
          "internalType": "address",
          "name": "from",
          "type": "address"
        },
        {
          "internalType": "address",
          "name": "to",
          "type": "address"
        },
        {
          "internalType": "uint256",
          "name": "value",
          "type": "uint256"
        }
      ],
      "name": "transferFrom",
      "outputs": [
        {
          "internalType": "bool",
          "name": "",
          "type": "bool"
        }
      ],
      "stateMutability": "nonpayable",
      "type": "function"
    }
  ],
  "bytecode": "0x608060405234801561001057600080fd5b506040518060400160405280600681526020017f547572746c6500000000000000000000000000000000000000000000000000008152506040518060400160405280600381526020017f5455520000000000000000000000000000000000000000000000000000000000815250816003908161008c91906105fb565b50806004908161009c91906105fb565b5050506100b83368056bc75e2d631000006100fe60201b60201c565b33600560006101000a81548173ffffffffffffffffffffffffffffffffffffffff021916908373ffffffffffffffffffffffffffffffffffffffff1602179055506107ed565b600073ffffffffffffffffffffffffffffffffffffffff168273ffffffffffffffffffffffffffffffffffffffff16036101705760006040517fec442f05000000000000000000000000000000000000000000000000000000008152600401610167919061070e565b60405180910390fd5b6101826000838361018660201b60201c565b5050565b600073ffffffffffffffffffffffffffffffffffffffff168373ffffffffffffffffffffffffffffffffffffffff16036101d85780600260008282546101cc9190610758565b925050819055506102ab565b60008060008573ffffffffffffffffffffffffffffffffffffffff1673ffffffffffffffffffffffffffffffffffffffff16815260200190815260200160002054905081811015610264578381836040517fe450d38c00000000000000000000000000000000000000000000000000000000815260040161025b9392919061079b565b60405180910390fd5b8181036000808673ffffffffffffffffffffffffffffffffffffffff1673ffffffffffffffffffffffffffffffffffffffff16815260200190815260200160002081905550505b600073ffffffffffffffffffffffffffffffffffffffff168273ffffffffffffffffffffffffffffffffffffffff16036102f45780600260008282540392505081905550610341565b806000808473ffffffffffffffffffffffffffffffffffffffff1673ffffffffffffffffffffffffffffffffffffffff168152602001908152602001600020600082825401925050819055505b8173ffffffffffffffffffffffffffffffffffffffff168373ffffffffffffffffffffffffffffffffffffffff167fddf252ad1be2c89b69c2b068fc378daa952ba7f163c4a11628f55a4df523b3ef8360405161039e91906107d2565b60405180910390a3505050565b600081519050919050565b7f4e487b7100000000000000000000000000000000000000000000000000000000600052604160045260246000fd5b7f4e487b7100000000000000000000000000000000000000000000000000000000600052602260045260246000fd5b6000600282049050600182168061042c57607f821691505b60208210810361043f5761043e6103e5565b5b50919050565b60008190508160005260206000209050919050565b60006020601f8301049050919050565b600082821b905092915050565b6000600883026104a77fffffffffffffffffffffffffffffffffffffffffffffffffffffffffffffffff8261046a565b6104b1868361046a565b95508019841693508086168417925050509392505050565b6000819050919050565b6000819050919050565b60006104f86104f36104ee846104c9565b6104d3565b6104c9565b9050919050565b6000819050919050565b610512836104dd565b61052661051e826104ff565b848454610477565b825550505050565b600090565b61053b61052e565b610546818484610509565b505050565b5b8181101561056a5761055f600082610533565b60018101905061054c565b5050565b601f8211156105af5761058081610445565b6105898461045a565b81016020851015610598578190505b6105ac6105a48561045a565b83018261054b565b50505b505050565b600082821c905092915050565b60006105d2600019846008026105b4565b1980831691505092915050565b60006105eb83836105c1565b9150826002028217905092915050565b610604826103ab565b67ffffffffffffffff81111561061d5761061c6103b6565b5b6106278254610414565b61063282828561056e565b600060209050601f8311600181146106655760008415610653578287015190505b61065d85826105df565b8655506106c5565b601f19841661067386610445565b60005b8281101561069b57848901518255600182019150602085019450602081019050610676565b868310156106b857848901516106b4601f8916826105c1565b8355505b6001600288020188555050505b505050505050565b600073ffffffffffffffffffffffffffffffffffffffff82169050919050565b60006106f8826106cd565b9050919050565b610708816106ed565b82525050565b600060208201905061072360008301846106ff565b92915050565b7f4e487b7100000000000000000000000000000000000000000000000000000000600052601160045260246000fd5b6000610763826104c9565b915061076e836104c9565b925082820190508082111561078657610785610729565b5b92915050565b610795816104c9565b82525050565b60006060820190506107b060008301866106ff565b6107bd602083018561078c565b6107ca604083018461078c565b949350505050565b60006020820190506107e7600083018461078c565b92915050565b611561806107fc6000396000f3fe608060405234801561001057600080fd5b50600436106100ea5760003560e01c806342966c681161008c57806395d89b411161006657806395d89b411461024b578063a9059cbb14610269578063abb1dc4414610299578063dd62ed3e146102ba576100ea565b806342966c68146101e157806370a08231146101fd5780638da5cb5b1461022d576100ea565b806318160ddd116100c857806318160ddd1461015957806323b872dd14610177578063313ce567146101a757806340c10f19146101c5576100ea565b806305ab421d146100ef57806306fdde031461010b578063095ea7b314610129575b600080fd5b61010960048036038101906101049190610f65565b6102ea565b005b610113610344565b6040516101209190611035565b60405180910390f35b610143600480360381019061013e9190610f65565b6103d6565b6040516101509190611072565b60405180910390f35b6101616103f9565b60405161016e919061109c565b60405180910390f35b610191600480360381019061018c91906110b7565b610403565b60405161019e9190611072565b60405180910390f35b6101af610432565b6040516101bc9190611126565b60405180910390f35b6101df60048036038101906101da9190610f65565b61043b565b005b6101fb60048036038101906101f69190611141565b610570565b005b6102176004803603810190610212919061116e565b61064b565b604051610224919061109c565b60405180910390f35b610235610693565b60405161024291906111aa565b60405180910390f35b6102536106b9565b6040516102609190611035565b60405180910390f35b610283600480360381019061027e9190610f65565b61074b565b6040516102909190611072565b60405180910390f35b6102a161076e565b6040516102b194939291906111c5565b60405180910390f35b6102d460048036038101906102cf9190611218565b6107a3565b6040516102e1919061109c565b60405180910390f35b806102f43361064b565b1015610335576040517f08c379a000000000000000000000000000000000000000000000000000000000815260040161032c906112a4565b60405180910390fd5b61033f828261074b565b505050565b606060038054610353906112f3565b80601f016020809104026020016040519081016040528092919081815260200182805461037f906112f3565b80156103cc5780601f106103a1576101008083540402835291602001916103cc565b820191906000526020600020905b8154815290600101906020018083116103af57829003601f168201915b5050505050905090565b6000806103e161082a565b90506103ee818585610832565b600191505092915050565b6000600254905090565b60008061040e61082a565b905061041b858285610844565b6104268585856108d8565b60019150509392505050565b60006012905090565b600560009054906101000a900473ffffffffffffffffffffffffffffffffffffffff1673ffffffffffffffffffffffffffffffffffffffff163373ffffffffffffffffffffffffffffffffffffffff16146104cb576040517f08c379a00000000000000000000000000000000000000000000000000000000081526004016104c290611370565b60405180910390fd5b680ad78ebc5ac6200000816104de6103f9565b6104e891906113bf565b1115610529576040517f08c379a00000000000000000000000000000000000000000000000000000000081526004016105209061143f565b60405180910390fd5b61053382826109cc565b7f3f2c9d57c068687834f0de942a9babb9e5acab57d516d3480a3c16ee165a4273828260405161056492919061145f565b60405180910390a15050565b8061057a3361064b565b10156105bb576040517f08c379a00000000000000000000000000000000000000000000000000000000081526004016105b2906112a4565b60405180910390fd5b6105c36103f9565b811115610605576040517f08c379a00000000000000000000000000000000000000000000000000000000081526004016105fc906114d4565b60405180910390fd5b61060f3382610a4e565b7ffd38818f5291bf0bb3a2a48aadc06ba8757865d1dabd804585338aab3009dcb6338260405161064092919061145f565b60405180910390a150565b60008060008373ffffffffffffffffffffffffffffffffffffffff1673ffffffffffffffffffffffffffffffffffffffff168152602001908152602001600020549050919050565b600560009054906101000a900473ffffffffffffffffffffffffffffffffffffffff1681565b6060600480546106c8906112f3565b80601f01602080910402602001604051908101604052809291908181526020018280546106f4906112f3565b80156107415780601f1061071657610100808354040283529160200191610741565b820191906000526020600020905b81548152906001019060200180831161072457829003601f168201915b5050505050905090565b60008061075661082a565b90506107638185856108d8565b600191505092915050565b60608060008061077c610344565b6107846106b9565b61078c6103f9565b6107953361064b565b935093509350935090919293565b6000600160008473ffffffffffffffffffffffffffffffffffffffff1673ffffffffffffffffffffffffffffffffffffffff16815260200190815260200160002060008373ffffffffffffffffffffffffffffffffffffffff1673ffffffffffffffffffffffffffffffffffffffff16815260200190815260200160002054905092915050565b600033905090565b61083f8383836001610ad0565b505050565b600061085084846107a3565b90507fffffffffffffffffffffffffffffffffffffffffffffffffffffffffffffffff81146108d257818110156108c2578281836040517ffb8f41b20000000000000000000000000000000000000000000000000000000081526004016108b9939291906114f4565b60405180910390fd5b6108d184848484036000610ad0565b5b50505050565b600073ffffffffffffffffffffffffffffffffffffffff168373ffffffffffffffffffffffffffffffffffffffff160361094a5760006040517f96c6fd1e00000000000000000000000000000000000000000000000000000000815260040161094191906111aa565b60405180910390fd5b600073ffffffffffffffffffffffffffffffffffffffff168273ffffffffffffffffffffffffffffffffffffffff16036109bc5760006040517fec442f050000000000000000000000000000000000000000000000000000000081526004016109b391906111aa565b60405180910390fd5b6109c7838383610ca7565b505050565b600073ffffffffffffffffffffffffffffffffffffffff168273ffffffffffffffffffffffffffffffffffffffff1603610a3e5760006040517fec442f05000000000000000000000000000000000000000000000000000000008152600401610a3591906111aa565b60405180910390fd5b610a4a60008383610ca7565b5050565b600073ffffffffffffffffffffffffffffffffffffffff168273ffffffffffffffffffffffffffffffffffffffff1603610ac05760006040517f96c6fd1e000000000000000000000000000000000000000000000000000000008152600401610ab791906111aa565b60405180910390fd5b610acc82600083610ca7565b5050565b600073ffffffffffffffffffffffffffffffffffffffff168473ffffffffffffffffffffffffffffffffffffffff1603610b425760006040517fe602df05000000000000000000000000000000000000000000000000000000008152600401610b3991906111aa565b60405180910390fd5b600073ffffffffffffffffffffffffffffffffffffffff168373ffffffffffffffffffffffffffffffffffffffff1603610bb45760006040517f94280d62000000000000000000000000000000000000000000000000000000008152600401610bab91906111aa565b60405180910390fd5b81600160008673ffffffffffffffffffffffffffffffffffffffff1673ffffffffffffffffffffffffffffffffffffffff16815260200190815260200160002060008573ffffffffffffffffffffffffffffffffffffffff1673ffffffffffffffffffffffffffffffffffffffff168152602001908152602001600020819055508015610ca1578273ffffffffffffffffffffffffffffffffffffffff168473ffffffffffffffffffffffffffffffffffffffff167f8c5be1e5ebec7d5bd14f71427d1e84f3dd0314c0f7b2291e5b200ac8c7c3b92584604051610c98919061109c565b60405180910390a35b50505050565b600073ffffffffffffffffffffffffffffffffffffffff168373ffffffffffffffffffffffffffffffffffffffff1603610cf9578060026000828254610ced91906113bf565b92505081905550610dcc565b60008060008573ffffffffffffffffffffffffffffffffffffffff1673ffffffffffffffffffffffffffffffffffffffff16815260200190815260200160002054905081811015610d85578381836040517fe450d38c000000000000000000000000000000000000000000000000000000008152600401610d7c939291906114f4565b60405180910390fd5b8181036000808673ffffffffffffffffffffffffffffffffffffffff1673ffffffffffffffffffffffffffffffffffffffff16815260200190815260200160002081905550505b600073ffffffffffffffffffffffffffffffffffffffff168273ffffffffffffffffffffffffffffffffffffffff1603610e155780600260008282540392505081905550610e62565b806000808473ffffffffffffffffffffffffffffffffffffffff1673ffffffffffffffffffffffffffffffffffffffff168152602001908152602001600020600082825401925050819055505b8173ffffffffffffffffffffffffffffffffffffffff168373ffffffffffffffffffffffffffffffffffffffff167fddf252ad1be2c89b69c2b068fc378daa952ba7f163c4a11628f55a4df523b3ef83604051610ebf919061109c565b60405180910390a3505050565b600080fd5b600073ffffffffffffffffffffffffffffffffffffffff82169050919050565b6000610efc82610ed1565b9050919050565b610f0c81610ef1565b8114610f1757600080fd5b50565b600081359050610f2981610f03565b92915050565b6000819050919050565b610f4281610f2f565b8114610f4d57600080fd5b50565b600081359050610f5f81610f39565b92915050565b60008060408385031215610f7c57610f7b610ecc565b5b6000610f8a85828601610f1a565b9250506020610f9b85828601610f50565b9150509250929050565b600081519050919050565b600082825260208201905092915050565b60005b83811015610fdf578082015181840152602081019050610fc4565b60008484015250505050565b6000601f19601f8301169050919050565b600061100782610fa5565b6110118185610fb0565b9350611021818560208601610fc1565b61102a81610feb565b840191505092915050565b6000602082019050818103600083015261104f8184610ffc565b905092915050565b60008115159050919050565b61106c81611057565b82525050565b60006020820190506110876000830184611063565b92915050565b61109681610f2f565b82525050565b60006020820190506110b1600083018461108d565b92915050565b6000806000606084860312156110d0576110cf610ecc565b5b60006110de86828701610f1a565b93505060206110ef86828701610f1a565b925050604061110086828701610f50565b9150509250925092565b600060ff82169050919050565b6111208161110a565b82525050565b600060208201905061113b6000830184611117565b92915050565b60006020828403121561115757611156610ecc565b5b600061116584828501610f50565b91505092915050565b60006020828403121561118457611183610ecc565b5b600061119284828501610f1a565b91505092915050565b6111a481610ef1565b82525050565b60006020820190506111bf600083018461119b565b92915050565b600060808201905081810360008301526111df8187610ffc565b905081810360208301526111f38186610ffc565b9050611202604083018561108d565b61120f606083018461108d565b95945050505050565b6000806040838503121561122f5761122e610ecc565b5b600061123d85828601610f1a565b925050602061124e85828601610f1a565b9150509250929050565b7f496e73756666696369656e742062616c616e6365000000000000000000000000600082015250565b600061128e601483610fb0565b915061129982611258565b602082019050919050565b600060208201905081810360008301526112bd81611281565b9050919050565b7f4e487b7100000000000000000000000000000000000000000000000000000000600052602260045260246000fd5b6000600282049050600182168061130b57607f821691505b60208210810361131e5761131d6112c4565b5b50919050565b7f43616c6c6572206973206e6f7420746865206f776e6572000000000000000000600082015250565b600061135a601783610fb0565b915061136582611324565b602082019050919050565b600060208201905081810360008301526113898161134d565b9050919050565b7f4e487b7100000000000000000000000000000000000000000000000000000000600052601160045260246000fd5b60006113ca82610f2f565b91506113d583610f2f565b92508282019050808211156113ed576113ec611390565b5b92915050565b7f4d696e74696e6720776f756c6420657863656564206d617820737570706c7900600082015250565b6000611429601f83610fb0565b9150611434826113f3565b602082019050919050565b600060208201905081810360008301526114588161141c565b9050919050565b6000604082019050611474600083018561119b565b611481602083018461108d565b9392505050565b7f416d6f756e74206578636565647320746f74616c20737570706c790000000000600082015250565b60006114be601b83610fb0565b91506114c982611488565b602082019050919050565b600060208201905081810360008301526114ed816114b1565b9050919050565b6000606082019050611509600083018661119b565b611516602083018561108d565b611523604083018461108d565b94935050505056fea26469706673582212202cc31b80105e397d7ed2027cf022d61bcd3fa547532174b23c8b652b0caa825064736f6c634300081b0033",
  "linkReferences": {},
  "deployedLinkReferences": {}
}